{
  "contractName": "Casino",
  "abi": [
    {
      "inputs": [
        {
          "internalType": "uint256",
          "name": "_minimumBet",
          "type": "uint256"
        }
      ],
      "payable": false,
      "stateMutability": "nonpayable",
      "type": "constructor"
    },
    {
      "payable": true,
      "stateMutability": "payable",
      "type": "fallback"
    },
    {
      "constant": true,
      "inputs": [],
      "name": "maxAmountOfBets",
      "outputs": [
        {
          "internalType": "uint256",
          "name": "",
          "type": "uint256"
        }
      ],
      "payable": false,
      "stateMutability": "view",
      "type": "function"
    },
    {
      "constant": true,
      "inputs": [],
      "name": "minimumBet",
      "outputs": [
        {
          "internalType": "uint256",
          "name": "",
          "type": "uint256"
        }
      ],
      "payable": false,
      "stateMutability": "view",
      "type": "function"
    },
    {
      "constant": true,
      "inputs": [],
      "name": "numberOfBets",
      "outputs": [
        {
          "internalType": "uint256",
          "name": "",
          "type": "uint256"
        }
      ],
      "payable": false,
      "stateMutability": "view",
      "type": "function"
    },
    {
      "constant": true,
      "inputs": [],
      "name": "owner",
      "outputs": [
        {
          "internalType": "address",
          "name": "",
          "type": "address"
        }
      ],
      "payable": false,
      "stateMutability": "view",
      "type": "function"
    },
    {
      "constant": true,
      "inputs": [
        {
          "internalType": "address",
          "name": "",
          "type": "address"
        }
      ],
      "name": "playerInfo",
      "outputs": [
        {
          "internalType": "uint256",
          "name": "amountBet",
          "type": "uint256"
        },
        {
          "internalType": "uint256",
          "name": "numberSelected",
          "type": "uint256"
        }
      ],
      "payable": false,
      "stateMutability": "view",
      "type": "function"
    },
    {
      "constant": true,
      "inputs": [
        {
          "internalType": "uint256",
          "name": "",
          "type": "uint256"
        }
      ],
      "name": "players",
      "outputs": [
        {
          "internalType": "address",
          "name": "",
          "type": "address"
        }
      ],
      "payable": false,
      "stateMutability": "view",
      "type": "function"
    },
    {
      "constant": true,
      "inputs": [],
      "name": "totalBet",
      "outputs": [
        {
          "internalType": "uint256",
          "name": "",
          "type": "uint256"
        }
      ],
      "payable": false,
      "stateMutability": "view",
      "type": "function"
    },
    {
      "constant": false,
      "inputs": [],
      "name": "kill",
      "outputs": [],
      "payable": false,
      "stateMutability": "nonpayable",
      "type": "function"
    },
    {
      "constant": true,
      "inputs": [
        {
          "internalType": "address",
          "name": "player",
          "type": "address"
        }
      ],
      "name": "checkPlayerExists",
      "outputs": [
        {
          "internalType": "bool",
          "name": "",
          "type": "bool"
        }
      ],
      "payable": false,
      "stateMutability": "view",
      "type": "function"
    },
    {
      "constant": false,
      "inputs": [
        {
          "internalType": "uint256",
          "name": "numberSelected",
          "type": "uint256"
        }
      ],
      "name": "bet",
      "outputs": [],
      "payable": true,
      "stateMutability": "payable",
      "type": "function"
    },
    {
      "constant": false,
      "inputs": [],
      "name": "generateNumberWinner",
      "outputs": [],
      "payable": false,
      "stateMutability": "nonpayable",
      "type": "function"
    },
    {
      "constant": false,
      "inputs": [
        {
          "internalType": "uint256",
          "name": "numberWinner",
          "type": "uint256"
        }
      ],
      "name": "distributePrizes",
      "outputs": [],
      "payable": false,
      "stateMutability": "nonpayable",
      "type": "function"
    }
  ],
  "bytecode": "0x6080604052606460045534801561001557600080fd5b50604051610a69380380610a698339818101604052602081101561003857600080fd5b8101908080519060200190929190505050336000806101000a81548173ffffffffffffffffffffffffffffffffffffffff021916908373ffffffffffffffffffffffffffffffffffffffff1602179055506000811461009957806001819055505b506109c0806100a96000396000f3fe6080604052600436106100a75760003560e01c80637365870b116100645780637365870b146102125780638da5cb5b14610240578063c38a8afd14610297578063e08a96cd146102c2578063f71d96cb146102ed578063fe5e185314610368576100a7565b80630a50e361146100a95780632ca8c6d3146100c05780634081d916146100eb57806341c0e1b5146101545780634b1146911461016b5780636ca3fc3b146101d7575b005b3480156100b557600080fd5b506100be610393565b005b3480156100cc57600080fd5b506100d56103b1565b6040518082815260200191505060405180910390f35b3480156100f757600080fd5b5061013a6004803603602081101561010e57600080fd5b81019080803573ffffffffffffffffffffffffffffffffffffffff1690602001909291905050506103b7565b604051808215151515815260200191505060405180910390f35b34801561016057600080fd5b50610169610459565b005b34801561017757600080fd5b506101ba6004803603602081101561018e57600080fd5b81019080803573ffffffffffffffffffffffffffffffffffffffff1690602001909291905050506104c9565b604051808381526020018281526020019250505060405180910390f35b3480156101e357600080fd5b50610210600480360360208110156101fa57600080fd5b81019080803590602001909291905050506104ed565b005b61023e6004803603602081101561022857600080fd5b8101908080359060200190929190505050610718565b005b34801561024c57600080fd5b50610255610882565b604051808273ffffffffffffffffffffffffffffffffffffffff1673ffffffffffffffffffffffffffffffffffffffff16815260200191505060405180910390f35b3480156102a357600080fd5b506102ac6108a7565b6040518082815260200191505060405180910390f35b3480156102ce57600080fd5b506102d76108ad565b6040518082815260200191505060405180910390f35b3480156102f957600080fd5b506103266004803603602081101561031057600080fd5b81019080803590602001909291905050506108b3565b604051808273ffffffffffffffffffffffffffffffffffffffff1673ffffffffffffffffffffffffffffffffffffffff16815260200191505060405180910390f35b34801561037457600080fd5b5061037d6108ef565b6040518082815260200191505060405180910390f35b60006001600a43816103a157fe5b060190506103ae816104ed565b50565b60035481565b600080600090505b60058054905081101561044e578273ffffffffffffffffffffffffffffffffffffffff16600582815481106103f057fe5b9060005260206000200160009054906101000a900473ffffffffffffffffffffffffffffffffffffffff1673ffffffffffffffffffffffffffffffffffffffff161415610441576001915050610454565b80806001019150506103bf565b50600090505b919050565b6000809054906101000a900473ffffffffffffffffffffffffffffffffffffffff1673ffffffffffffffffffffffffffffffffffffffff163373ffffffffffffffffffffffffffffffffffffffff1614156104c7573373ffffffffffffffffffffffffffffffffffffffff16ff5b565b60066020528060005260406000206000915090508060000154908060010154905082565b6104f5610917565b600080905060008090505b6005805490508110156106405760006005828154811061051c57fe5b9060005260206000200160009054906101000a900473ffffffffffffffffffffffffffffffffffffffff16905084600660008373ffffffffffffffffffffffffffffffffffffffff1673ffffffffffffffffffffffffffffffffffffffff1681526020019081526020016000206001015414156105e057808484606481106105a057fe5b602002019073ffffffffffffffffffffffffffffffffffffffff16908173ffffffffffffffffffffffffffffffffffffffff168152505082806001019350505b600660008273ffffffffffffffffffffffffffffffffffffffff1673ffffffffffffffffffffffffffffffffffffffff16815260200190815260200160002060008082016000905560018201600090555050508080600101915050610500565b50600060646002548161064f57fe5b04905060008090505b8281101561070957600073ffffffffffffffffffffffffffffffffffffffff1684826064811061068457fe5b602002015173ffffffffffffffffffffffffffffffffffffffff16146106fc578381606481106106b057fe5b602002015173ffffffffffffffffffffffffffffffffffffffff166108fc839081150290604051600060405180830381858888f193505050501580156106fa573d6000803e3d6000fd5b505b8080600101915050610658565b506107126108f5565b50505050565b610721336103b7565b1561072b57600080fd5b6001811015801561073d5750600a8111155b61074657600080fd5b60015434101561075557600080fd5b34600660003373ffffffffffffffffffffffffffffffffffffffff1673ffffffffffffffffffffffffffffffffffffffff1681526020019081526020016000206000018190555080600660003373ffffffffffffffffffffffffffffffffffffffff1673ffffffffffffffffffffffffffffffffffffffff1681526020019081526020016000206001018190555060036000815480929190600101919050555060053390806001815401808255809150509060018203906000526020600020016000909192909190916101000a81548173ffffffffffffffffffffffffffffffffffffffff021916908373ffffffffffffffffffffffffffffffffffffffff16021790555050346002600082825401925050819055506004546003541061087f5761087e610393565b5b50565b6000809054906101000a900473ffffffffffffffffffffffffffffffffffffffff1681565b60015481565b60045481565b600581815481106108c057fe5b906000526020600020016000915054906101000a900473ffffffffffffffffffffffffffffffffffffffff1681565b60025481565b6000600581610904919061093a565b5060006002819055506000600381905550565b60405180610c800160405280606490602082028038833980820191505090505090565b815481835581811115610961578183600052602060002091820191016109609190610966565b5b505050565b61098891905b8082111561098457600081600090555060010161096c565b5090565b9056fea265627a7a7231582010d6a46bd3709d4fd92bf1a24dc6b68f3ea84ad22624e73bbeec4c5c6a67f67364736f6c63430005100032",
  "source": "pragma solidity 0.5.16;\n\ncontract Casino {\n    address public owner;\n    uint256 public minimumBet;\n    uint256 public totalBet;\n    uint256 public numberOfBets;\n    uint256 public maxAmountOfBets = 100;\n    address[] public players;\n\n    struct Player {\n        uint256 amountBet;\n        uint256 numberSelected;\n    }\n\n    // the address of the player and => the user info\n    mapping(address => Player) public playerInfo;\n\n    // contract constructor\n    constructor(uint256 _minimumBet) public {\n        owner = msg.sender;\n        if (_minimumBet != 0) minimumBet = _minimumBet;\n    }\n\n    function kill() public {\n        if (msg.sender == owner) selfdestruct(msg.sender);\n    }\n\n    function checkPlayerExists(address player) public view returns(bool) {\n        for (uint256 i = 0; i < players.length; i++) {\n            if (players[i] == player) return true;\n        }\n        return false;\n    }\n\n    // bet on a number between 1 and 10 (inclusive)\n    function bet(uint256 numberSelected) public payable {\n        require(!checkPlayerExists(msg.sender));\n        require(numberSelected >= 1 && numberSelected <= 10);\n        require(msg.value >= minimumBet);\n\n        playerInfo[msg.sender].amountBet = msg.value;\n        playerInfo[msg.sender].numberSelected = numberSelected;\n        numberOfBets++;\n        players.push(msg.sender);\n        totalBet += msg.value;\n\n        if (numberOfBets >= maxAmountOfBets) generateNumberWinner();\n    }\n\n    // generate the winning number\n    // TODO: refactor to use Chainlink VRF\n    function generateNumberWinner() public {\n        uint256 numberGenerated = block.number % 10 + 1;\n        distributePrizes(numberGenerated);\n    }\n\n    // send eth to winners\n    function distributePrizes(uint256 numberWinner) public {\n        address payable[100] memory winners;\n        uint256 count = 0;\n\n        for (uint256 i = 0; i < players.length; i++) {\n            address playerAddress = players[i];\n            if (playerInfo[playerAddress].numberSelected == numberWinner) {\n                // from Solidity docs:\n                // \"Implicit conversions from address payable to address are allowed,\n                // whereas conversions from address to address payable are not possible\n                // (the only way to perform such a conversion is by using an intermediate\n                // conversion to uint160)\"\n                winners[count] = address(uint160(playerAddress));\n                count++;\n            }\n            // delete each player\n            delete playerInfo[playerAddress];\n        }\n\n        uint256 winnerEtherAmount = totalBet / winners.length;\n\n        for (uint256 j = 0; j < count; j++) {\n            if (winners[j] != address(0)) {\n                winners[j].transfer(winnerEtherAmount);\n            }\n        }\n\n        resetData();\n    }\n\n    function resetData() internal {\n        players.length = 0;\n        totalBet = 0;\n        numberOfBets = 0;\n    }\n\n    // fallback function\n    function() payable external {}\n}\n",
  "sourcePath": "/Users/phaedrus/Development/eth-casino/contracts/Casino.sol",
  "compiler": {
    "name": "solc",
    "version": "0.5.16+commit.9c3226ce.Emscripten.clang"
  },
  "schemaVersion": "3.3.3",
  "updatedAt": "2021-01-17T02:07:27.745Z",
  "devdoc": {
    "methods": {}
  },
  "userdoc": {
    "methods": {}
  }
}